:100000000C942A000C943F000C943F000C943F0089
:100010000C943F000C943F000C943F000C943F0064
:100020000C943F000C943F000C943F000C943F0054
:100030000C943F000C943F000C943F000C943F0044
:100040000C943F000C943F000C943F000C943F0034
:100050000C943F0011241FBECFE5D8E0DEBFCDBF1A
:1000600010E0A0E6B0E0EEE0F5E102C005900D92F0
:10007000A03AB107D9F70E9441000C94850A0C946C
:100080000000CF93DF9300D000D000D0CDB7DEB713
:1000900052D619821A828FEF9FEF9C838B838C2F0D
:1000A0009D2F0596482F592F60E070E081E090E089
:1000B000D7D29C838B838B819C81892B81F78D8107
:1000C0009E81892B39F56EE170E080E090E0CCD51F
:1000D0008C2F9D2F0596482F592F60E070E081E00E
:1000E00090E0BED2892BD9F68D819E81892BB9F6FD
:1000F0008A818823A1F689818F3011F4198203C087
:1001000089818F5F8983698180E090E026D281E0D8
:100110008A83C5CF1A82C3CFCF93DF93CDB7DEB723
:1001200028970FB6F894DEBF0FBECDBF9C838B839C
:100130007E836D8358874F831A8219828D819E81B9
:10014000089728F083E090E09A838983FBC18B8134
:100150009C81039709F47BC18B819C81049708F0F3
:10016000ECC18B819C81029709F4FBC08B819C813F
:10017000039708F0E2C18B819C81892B31F08B8140
:100180009C81019709F477C0D8C18F819885892B0C
:1001900029F08F8198850197A9F167C08AE390E0E3
:1001A000E82FF92F8081282F30E081E090E00D804A
:1001B00002C0880F991F0A94E2F7822393230D80CF
:1001C00002C0959587950A94E2F7892B29F486E079
:1001D00090E09A8389834EC08BE390E0E82FF92F5B
:1001E0008081282F81E090E00D8002C0880F991F48
:1001F0000A94E2F7809528238BE390E0E82FF92F0B
:10020000208338C08AE390E0E82FF92F8081282FDF
:1002100030E081E090E00D8002C0880F991F0A94C1
:10022000E2F7822393230D8002C0959587950A9467
:10023000E2F7892B29F486E090E09A8389831AC03B
:100240008BE390E0E82FF92F8081282F81E090E068
:100250000D8002C0880F991F0A94E2F7282B8BE3C8
:1002600090E0E82FF92F208305C085E090E09A8385
:100270008983000067C18F819885892B29F08F8140
:1002800098850197A9F167C087E390E0E82FF92FDF
:100290008081282F30E081E090E00D8002C0880F3F
:1002A000991F0A94E2F7822393230D8002C095954B
:1002B00087950A94E2F7892B29F486E090E09A83E7
:1002C00089834EC088E390E0E82FF92F8081282FA2
:1002D00081E090E00D8002C0880F991F0A94E2F738
:1002E0008095282388E390E0E82FF92F208338C0F9
:1002F00087E390E0E82FF92F8081282F30E081E01C
:1003000090E00D8002C0880F991F0A94E2F78223C3
:1003100093230D8002C0959587950A94E2F7892B67
:1003200029F486E090E09A8389831AC088E390E0FC
:10033000E82FF92F8081282F81E090E00D8002C006
:10034000880F991F0A94E2F7282B88E390E0E82FA2
:10035000F92F208305C085E090E09A83898300000F
:10036000F1C08F819885892B29F08F81988501971D
:10037000A9F167C084E390E0E82FF92F8081282F4E
:1003800030E081E090E00D8002C0880F991F0A9450
:10039000E2F7822393230D8002C0959587950A94F6
:1003A000E2F7892B29F486E090E09A8389834EC096
:1003B00085E390E0E82FF92F8081282F81E090E0FD
:1003C0000D8002C0880F991F0A94E2F780952823B8
:1003D00085E390E0E82FF92F208338C084E390E094
:1003E000E82FF92F8081282F30E081E090E00D8008
:1003F00002C0880F991F0A94E2F7822393230D808D
:1004000002C0959587950A94E2F7892B29F486E036
:1004100090E09A8389831AC085E390E0E82FF92F52
:100420008081282F81E090E00D8002C0880F991F05
:100430000A94E2F7282B85E390E0E82FF92F208338
:1004400005C085E090E09A83898300007BC08F819E
:100450009885892B29F08F8198850197A9F167C02C
:1004600081E390E0E82FF92F8081282F30E081E0B0
:1004700090E00D8002C0880F991F0A94E2F7822352
:1004800093230D8002C0959587950A94E2F7892BF6
:1004900029F486E090E09A8389834EC082E390E05D
:1004A000E82FF92F8081282F81E090E00D8002C095
:1004B000880F991F0A94E2F78095282382E390E041
:1004C000E82FF92F208338C081E390E0E82FF92F3F
:1004D0008081282F30E081E090E00D8002C0880FFD
:1004E000991F0A94E2F7822393230D8002C0959509
:1004F00087950A94E2F7892B29F486E090E09A83A5
:1005000089831AC082E390E0E82FF92F8081282F99
:1005100081E090E00D8002C0880F991F0A94E2F7F5
:10052000282B82E390E0E82FF92F208305C085E097
:1005300090E09A838983000005C082E090E09A836E
:100540008983000089819A8128960FB6F894DEBFCE
:100550000FBECDBFDF91CF910895CF93DF9300D031
:1005600000D00F92CDB7DEB79C838B836D831A8248
:1005700019828B819C81039709F450C08B819C81E7
:10058000049708F05EC08B819C810297A1F18B815A
:100590009C81039708F055C08B819C81892B29F0A1
:1005A0008B819C810197A1F04CC08AE390E0E82FF9
:1005B000F92F8081882329F487E090E09A8389834A
:1005C00045C08BE390E02D81E82FF92F20833EC0BA
:1005D00087E390E0E82FF92F8081882329F487E0D2
:1005E00090E09A83898332C088E390E02D81E82FE0
:1005F000F92F20832BC084E390E0E82FF92F80812E
:10060000882329F487E090E09A8389831FC085E3DB
:1006100090E02D81E82FF92F208318C081E390E02E
:10062000E82FF92F8081882329F487E090E09A83CE
:1006300089830CC082E390E02D81E82FF92F20837D
:1006400005C082E090E09A838983000089819A81C5
:100650000F900F900F900F900F90DF91CF91089512
:10066000CF93DF93CDB7DEB728970FB6F894DEBFF0
:100670000FBECDBF9C838B837E836D8358874F8352
:100680001A8219828D819E81089728F083E090E07C
:100690009A83898324C18F819885892B29F481E0ED
:1006A00090E09A8389831BC18B819C81039709F415
:1006B000D3C08B819C81049708F00CC18B819C81F5
:1006C000029709F48BC08B819C81039708F002C1CB
:1006D0008B819C81892B31F08B819C81019709F45E
:1006E0003FC0F8C08AE390E0E82FF92F8081282FDF
:1006F00030E081E090E00D8002C0880F991F0A94DD
:10070000E2F7822393230D8002C0959587950A9482
:10071000E2F7019729F488E090E09A838983DFC0AB
:1007200089E390E0E82FF92F8081282F30E081E0E5
:1007300090E00D8002C0880F991F0A94E2F782238F
:1007400093230D8002C0959587950A94E2F7282F90
:10075000392F8F819885E82FF92F31832083BFC0EF
:1007600087E390E0E82FF92F8081282F30E081E0A7
:1007700090E00D8002C0880F991F0A94E2F782234F
:1007800093230D8002C0959587950A94E2F701970F
:1007900029F488E090E09A838983A1C086E390E001
:1007A000E82FF92F8081282F30E081E090E00D8044
:1007B00002C0880F991F0A94E2F7822393230D80C9
:1007C00002C0959587950A94E2F7282F392F8F81DB
:1007D0009885E82FF92F3183208381C084E390E04E
:1007E000E82FF92F8081282F30E081E090E00D8004
:1007F00002C0880F991F0A94E2F7822393230D8089
:1008000002C0959587950A94E2F7019729F488E04C
:1008100090E09A83898363C083E390E0E82FF92F07
:100820008081282F30E081E090E00D8002C0880FA9
:10083000991F0A94E2F7822393230D8002C09595B5
:1008400087950A94E2F7282F392F8F819885E82F12
:10085000F92F3183208343C081E390E0E82FF92F03
:100860008081282F30E081E090E00D8002C0880F69
:10087000991F0A94E2F7822393230D8002C0959575
:1008800087950A94E2F7019729F488E090E09A832B
:10089000898325C080E390E0E82FF92F8081282FFD
:1008A00030E081E090E00D8002C0880F991F0A942B
:1008B000E2F7822393230D8002C0959587950A94D1
:1008C000E2F7282F392F8F819885E82FF92F318370
:1008D000208305C082E090E09A83898300008981AB
:1008E0009A8128960FB6F894DEBF0FBECDBFDF9178
:1008F000CF910895CF93DF9300D000D000D0CDB733
:10090000DEB79C838B837E836D831A8219828D81EF
:100910009E81892B29F481E090E09A8389838AC0A3
:100920008B819C81039709F466C08B819C8104971D
:1009300008F07BC08B819C81029709F442C08B81B7
:100940009C81039708F071C08B819C81892B29F0D1
:100950008B819C810197D9F068C08AE390E0E82FF1
:10096000F92F80818F3F29F489E090E09A83898371
:1009700061C089E390E0E82FF92F8081282F30E0D3
:100980008D819E81E82FF92F3183208353C087E327
:1009900090E0E82FF92F80818F3F29F489E090E0E3
:1009A0009A83898347C086E390E0E82FF92F8081FE
:1009B000282F30E08D819E81E82FF92F318320830D
:1009C00039C084E390E0E82FF92F80818F3F29F42C
:1009D00089E090E09A8389832DC083E390E0E82F3B
:1009E000F92F8081282F30E08D819E81E82FF92F0B
:1009F000318320831FC081E390E0E82FF92F8081AD
:100A00008F3F29F489E090E09A83898313C080E3C3
:100A100090E0E82FF92F8081282F30E08D819E8192
:100A2000E82FF92F3183208305C082E090E09A837C
:100A30008983000089819A8126960FB6F894DEBFDB
:100A40000FBECDBFDF91CF910895CF93DF9300D03C
:100A500000D000D0CDB7DEB79C838B837E836D83BF
:100A60001A8219828D819E81089728F083E090E098
:100A70009A838983EEC08B819C81039709F4B1C06E
:100A80008B819C81049708F0DFC08B819C81029749
:100A900009F474C08B819C81039708F0D5C08B81C9
:100AA0009C81892B29F08B819C810197A1F1CCC07D
:100AB0008AE390E0E82FF92F8081282F30E081E051
:100AC00090E00D8002C0880F991F0A94E2F78223FC
:100AD00093230D8002C0959587950A94E2F7892BA0
:100AE00029F486E090E09A838983B3C08BE390E099
:100AF000E82FF92F8081282F81E090E00D8002C03F
:100B0000880F991F0A94E2F728278BE390E0E82FDB
:100B1000F92F20839EC087E390E0E82FF92F808192
:100B2000282F30E081E090E00D8002C0880F991FEF
:100B30000A94E2F7822393230D8002C0959587954E
:100B40000A94E2F7892B29F486E090E09A8389835E
:100B500080C088E390E0E82FF92F8081282F81E082
:100B600090E00D8002C0880F991F0A94E2F72827B1
:100B700088E390E0E82FF92F20836BC084E390E0B6
:100B8000E82FF92F8081282F30E081E090E00D8060
:100B900002C0880F991F0A94E2F7822393230D80E5
:100BA00002C0959587950A94E2F7892B29F486E08F
:100BB00090E09A8389834DC085E390E0E82FF92F78
:100BC0008081282F81E090E00D8002C0880F991F5E
:100BD0000A94E2F7282785E390E0E82FF92F208395
:100BE00038C081E390E0E82FF92F8081282F30E092
:100BF00081E090E00D8002C0880F991F0A94E2F70F
:100C0000822393230D8002C0959587950A94E2F77D
:100C1000892B29F486E090E09A8389831AC082E3C5
:100C200090E0E82FF92F8081282F81E090E00D805F
:100C300002C0880F991F0A94E2F7282782E390E008
:100C4000E82FF92F208305C082E090E09A83898302
:100C5000000089819A8126960FB6F894DEBF0FBEF8
:100C6000CDBFDF91CF910895CF93DF93CDB7DEB79E
:100C70002C970FB6F894DEBF0FBECDBF69877A8779
:100C80008B879C8749855A856B857C85B72FA62FD6
:100C9000952F842F880F991FAA1FBB1F880F991F9C
:100CA000AA1FBB1F880F991FAA1FBB1F880F991F60
:100CB000AA1FBB1F880F991FAA1FBB1F841B950B60
:100CC000A60BB70B880F991FAA1FBB1F880F991F70
:100CD000AA1FBB1F840F951FA61FB71F8D839E835E
:100CE000AF83B88719821A821B821C820CC0000055
:100CF00089819A81AB81BC810196A11DB11D898337
:100D00009A83AB83BC8349815A816B817C818D81BD
:100D10009E81AF81B885481759076A077B0738F36A
:100D2000000000002C960FB6F894DEBF0FBECDBFBA
:100D3000DF91CF910895CF93DF930F92CDB7DEB7B8
:100D40001982CDC38981882F90E0880F991F805A1E
:100D50009F4FE82FF92F80819181892B09F0E5C001
:100D60008981883080F58AE390E0E82FF92F80812F
:100D7000482F8981282F30E081E090E002C0880F61
:100D8000991F2A95E2F78095242F28238AE390E083
:100D9000E82FF92F20838BE390E0E82FF92F808153
:100DA000482F8981282F30E081E090E002C0880F31
:100DB000991F2A95E2F7242F282B8BE390E0E82F48
:100DC000F92F208389C389818031C0F587E390E0C2
:100DD000E82FF92F8081482F8981882F90E0282FD4
:100DE000392F2770332781E090E002C0880F991FC8
:100DF0002A95E2F78095242F282387E390E0E82FB7
:100E0000F92F208388E390E0E82FF92F8081482F85
:100E10008981882F90E0282F392F2770332781E090
:100E200090E002C0880F991F2A95E2F7242F282B03
:100E300088E390E0E82FF92F20834EC38981883121
:100E4000C0F584E390E0E82FF92F8081482F898155
:100E5000882F90E0282F392F2F70332781E090E0E2
:100E600002C0880F991F2A95E2F78095242F282326
:100E700084E390E0E82FF92F208385E390E0E82FCA
:100E8000F92F8081482F8981882F90E0282F392FD2
:100E90002F70332781E090E002C0880F991F2A95B8
:100EA000E2F7242F282B85E390E0E82FF92F208309
:100EB00013C38981803208F00FC381E390E0E82FEB
:100EC000F92F8081482F898198E1692F12D3892FCA
:100ED000282F30E081E090E002C0880F991F2A950A
:100EE000E2F78095242F282381E390E0E82FF92F63
:100EF000208382E390E0E82FF92F8081482F8981B9
:100F000098E1692FF6D2892F282F30E081E090E018
:100F100002C0880F991F2A95E2F7242F282B82E31D
:100F200090E0E82FF92F2083D7C28981882F90E0A5
:100F3000880F991F805A9F4FE82FF92F8081918148
:100F4000019709F0E9C08981883088F58AE390E04B
:100F5000E82FF92F8081482F8981282F30E081E008
:100F600090E002C0880F991F2A95E2F78095242F00
:100F700028238AE390E0E82FF92F20838BE390E089
:100F8000E82FF92F8081482F8981282F30E081E0D8
:100F900090E002C0880F991F2A95E2F78095242FD0
:100FA00028238BE390E0E82FF92F208395C28981D5
:100FB0008031C8F587E390E0E82FF92F8081482F32
:100FC0008981882F90E0282F392F2770332781E0DF
:100FD00090E002C0880F991F2A95E2F78095242F90
:100FE000282387E390E0E82FF92F208388E390E01F
:100FF000E82FF92F8081482F8981882F90E0282FB2
:10100000392F2770332781E090E002C0880F991FA5
:101010002A95E2F78095242F282388E390E0E82F93
:10102000F92F208359C289818831C8F584E390E083
:10103000E82FF92F8081482F8981882F90E0282F71
:10104000392F2F70332781E090E002C0880F991F5D
:101050002A95E2F78095242F282384E390E0E82F57
:10106000F92F208385E390E0E82FF92F8081482F26
:101070008981882F90E0282F392F2F70332781E026
:1010800090E002C0880F991F2A95E2F78095242FDF
:10109000282385E390E0E82FF92F20831DC2898162
:1010A000803208F019C281E390E0E82FF92F8081A7
:1010B000482F898198E1692F1CD2892F282F30E091
:1010C00081E090E002C0880F991F2A95E2F7809591
:1010D000242F282381E390E0E82FF92F208382E357
:1010E00090E0E82FF92F8081482F898198E1692FBE
:1010F00000D2892F282F30E081E090E002C0880FD5
:10110000991F2A95E2F78095242F282382E390E007
:10111000E82FF92F2083E0C18981882F90E0880F84
:10112000991F805A9F4FE82FF92F80819181029754
:1011300009F0E1C08981883078F58AE390E0E82FF2
:10114000F92F8081482F8981282F30E081E090E0BD
:1011500002C0880F991F2A95E2F7242F282B8AE3D3
:1011600090E0E82FF92F20838BE390E0E82FF92F10
:101170008081482F8981282F30E081E090E002C0F3
:10118000880F991F2A95E2F7242F282B8BE390E0F4
:10119000E82FF92F2083A0C189818031B8F587E33A
:1011A00090E0E82FF92F8081482F8981882F90E0E7
:1011B000282F392F2770332781E090E002C0880F55
:1011C000991F2A95E2F7242F282B87E390E0E82F38
:1011D000F92F208388E390E0E82FF92F8081482FB2
:1011E0008981882F90E0282F392F2770332781E0BD
:1011F00090E002C0880F991F2A95E2F7242F282B30
:1012000088E390E0E82FF92F208366C18981883137
:10121000B8F584E390E0E82FF92F8081482F898189
:10122000882F90E0282F392F2F70332781E090E00E
:1012300002C0880F991F2A95E2F7242F282B84E3F8
:1012400090E0E82FF92F208385E390E0E82FF92F35
:101250008081482F8981882F90E0282F392F2F7087
:10126000332781E090E002C0880F991F2A95E2F7AA
:10127000242F282B85E390E0E82FF92F20832CC121
:101280008981803208F028C181E390E0E82FF92FAE
:101290008081482F898198E1692F2BD1892F282FB0
:1012A00030E081E090E002C0880F991F2A95E2F7B4
:1012B000242F282B81E390E0E82FF92F208382E36D
:1012C00090E0E82FF92F8081482F898198E1692FDC
:1012D00010D1892F282F30E081E090E002C0880FE4
:1012E000991F2A95E2F7242F282B82E390E0E82F1C
:1012F000F92F2083F1C08981882F90E0880F991FF2
:10130000805A9F4FE82FF92F80819181039709F030
:10131000E3C08981883080F58AE390E0E82FF92FD7
:101320008081482F8981282F30E081E090E002C041
:10133000880F991F2A95E2F7242F282B8AE390E043
:10134000E82FF92F20838BE390E0E82FF92F80819D
:10135000482F8981282F30E081E090E002C0880F7B
:10136000991F2A95E2F78095242F28238BE390E09C
:10137000E82FF92F2083B0C089818031C0F587E341
:1013800090E0E82FF92F8081482F8981882F90E005
:10139000282F392F2770332781E090E002C0880F73
:1013A000991F2A95E2F7242F282B87E390E0E82F56
:1013B000F92F208388E390E0E82FF92F8081482FD0
:1013C0008981882F90E0282F392F2770332781E0DB
:1013D00090E002C0880F991F2A95E2F78095242F8C
:1013E000282388E390E0E82FF92F208375C08981B6
:1013F0008831C0F584E390E0E82FF92F8081482FF1
:101400008981882F90E0282F392F2F70332781E092
:1014100090E002C0880F991F2A95E2F7242F282B0D
:1014200084E390E0E82FF92F208385E390E0E82F14
:10143000F92F8081482F8981882F90E0282F392F1C
:101440002F70332781E090E002C0880F991F2A9502
:10145000E2F78095242F282385E390E0E82FF92FE9
:1014600020833AC089818032B8F581E390E0E82F8B
:10147000F92F8081482F898198E1692F3AD0892FEF
:10148000282F30E081E090E002C0880F991F2A9554
:10149000E2F7242F282B81E390E0E82FF92F208317
:1014A00082E390E0E82FF92F8081482F898198E12D
:1014B000692F1FD0892F282F30E081E090E002C0F3
:1014C000880F991F2A95E2F78095242F282382E31D
:1014D00090E0E82FF92F208389818F5F89838981AC
:1014E000803208F42FCC000000000F90DF91CF91E4
:1014F0000895991B79E004C0991F961708F0961B70
:0E150000881F7A95C9F780950895F894FFCF5B
:10150E0003000300030003000300030003000300B5
:10151E0000000300030003000300030003000300A8
:10152E000300030003000300030003000300030095
:10153E000300030003000300030003000300030085
:00000001FF
